:040000008A11112828
:10000800FE00030EF1000408F2000A08F300831250
:1000180003137F08F4008A11A7288A111328F50111
:10002800F601F701F80183132F30FD000130FE00BF
:10003800A930FF00203084008A119D2183018A1194
:100048002528831203179E019F01831203131F1093
:100058008316031385018601870183120313850123
:100068008601870105153330B600BC30B500103065
:10007800B400B40B3D28B50B3D28B60B3D288312C0
:10008800031305118A11C5218A118A1186218A1143
:100098008A1170218A118B17831203138710071393
:1000A800871387117708031956288312031320082A
:1000B8008A11D2218A118312031321088A11D221AD
:1000C8008A118312031322088A11D2218A118312FA
:1000D800031323088A11D2218A11831203132408D7
:1000E8008A11D2218A118A11FC208A11F701562817
:1000F8000D30B600AF30B500C130B400B40B822863
:10010800B50B8228B60B822800008312031307134D
:100118008717871107170D30B600AF30B500C1300B
:10012800B400B40B9528B50B9528B60B952800009C
:10013800831203130713770803199F288A11FC20D9
:100148008A11F7019F280B1DBA280B110630810070
:100158000C10FC308F0018308E0010140130F50799
:100168000318F60A0030F6078714F1280C1CC0287B
:100178000C1010108710F1288C1EF1281A08F000B6
:100188007008F80053307806031DD6287708031D39
:10019800D6280130F5000030F6007808F000700825
:1001A800A000F12854307806031DE3287808F000F1
:1001B8007008A300F501F601F701F70AF1281A08FB
:1001C800F0007508203E8400700883138000013019
:1001D800F5070318F60A0030F6077408FF007308DD
:1001E8008A0072088400710E8300FE0E7E0E0900DC
:1001F8005330831203132006031D4C295430230661
:10020800031D4C292108B30004300310B30CFF3E32
:10021800031D0929330803192529211C1C294630E7
:100228008A11D2218A11831203130710071528296E
:1002380042308A11D2218A1183120313071407113D
:1002480028290710071187102208B300043003106B
:10025800B30CFF3E031D2B29330803194829071344
:10026800221C3F294C308A11D2218A118312031390
:1002780087138715462952308A11D2218312031316
:1002880087178711071708008713871107130800B6
:1002980001308A115021080083120313B000B10104
:1002A800B2013108300784008A11B8218A11003A56
:1002B800031908003108300784008A11B8218A110F
:1002C8008A11D2218A11013083120313B10703184E
:1002D800B20A0030B20755290A3083160313990071
:1002E8001815181283120313981783160313861709
:1002F80086168312031318168316031398168C1682
:100308000B17080001308312031390000C10FC3007
:100318008F0018308E00831603130C14C03083121C
:100328000313AF002F088B0408007E088A007F089B
:10033800820099218A118000840A04087D06031925
:100348000034FF0A0319FE0A9D29303400340034B2
:1003580000340034003400340034003400340034F5
:10036800003400340034003401308A000408840A60
:10037800820700344534523452344F3452343134C5
:10038800003483308316031381000630831203136D
:100398008100A030AF002F088B04080083120313DC
:1003A800AF0083160313981CD529831203132F0853
:0403B80099000800A0
:02400E00F2FFBF
:00000001FF
