:040000008A11112828
:10000800FE00030EF1000408F2000A08F300831250
:1000180003137F08F4008A11A8288A111328F50110
:10002800F601F701F80183132F30FD000130FE00BF
:10003800A830FF00203084008A119C2183018A1196
:100048002528831203179E019F01831203131F1093
:100058008316031385018601870183120313850123
:100068008601870105150B30B6002630B5006630CD
:10007800B400B40B3D28B50B3D28B60B3D284428E9
:100088008312031305118A11C4218A118A1185214B
:100098008A118A116F218A118B1783120313871013
:1000A8000713871387117708031957288312031337
:1000B80020088A11D1218A118312031321088A1179
:1000C800D1218A118312031322088A11D1218A119E
:1000D8008312031323088A11D1218A11831203136F
:1000E80024088A11D1218A118A11FC208A11F7016A
:1000F80057280330B6008A30B5005630B400B40B28
:100108008328B50B8328B60B83288A288312031308
:1001180007138717871107170330B6008A30B50011
:100128005630B400B40B9628B50B9628B60B962813
:100138009D2883120313071377080319A0288A112F
:10014800FC208A11F701A0280B1DBA280B113830A2
:1001580081000C10FF308F0038308E0010140130F1
:10016800F5070318F60A0030F607BE280C1CC0284D
:100178000C1010108714F1288C1EF1281A08F000B2
:100188007008F80053307806031DD6287708031D39
:10019800D6280130F5000030F6007808F000700825
:1001A800A000F12854307806031DE3287808F000F1
:1001B8007008A300F501F601F701F70AF1281A08FB
:1001C800F0007508203E8400700883138000013019
:1001D800F5070318F60A0030F6077408FF007308DD
:1001E8008A0072088400710E8300FE0E7E0E0900DC
:1001F8005330831203132006031D4B295430230662
:10020800031D4B292108B30004300310B30CFF3E33
:10021800031D0929330803192829211C1D294630E3
:100228008A11D1218A118312031387100710071529
:10023800262942308A11D1218A118312031387108B
:10024800071407118714292987102208B3000430DE
:100258000310B30CFF3E031D2C2933080319492949
:100268000713221C40294C308A11D1218A1183128C
:10027800031387138715472952308A11D121831216
:1002880003138717871107170800071308000130A1
:100298008A114F21080083120313B000B101B20183
:1002A8003108300784008A11B7218A11003A0319EE
:1002B80008003108300784008A11B7218A118A1191
:1002C800D1218A11013083120313B1070318B20A2E
:1002D8000030B207542919308316031399001815F2
:1002E800181283120313981783160313861786169A
:1002F8008312031318168316031398168C160B17FC
:10030800080001308312031390000C10FF308F0097
:1003180038308E00831603130C14C0308312031375
:10032800AF002F088B0408007E088A007F0882002F
:1003380098218A118000840A04087D060319003474
:10034800FF0A0319FE0A9C293034003400340034B3
:1003580000340034003400340034003400340034F5
:1003680000340034003401308A000408840A82070B
:1003780000344534523452344F345234313400341A
:1003880081308316031381003830831203138100F0
:10039800A030AF002F088B04080083120313AF00AE
:1003A80083160313981CD429831203132F0899006A
:0203B80008003B
:02400E00F2FFBF
:00000001FF
