:040000008A11112828
:10000800FE00030EF2000408F3000A08F40083124D
:1000180003137F08F5008A1176288A111328AA018C
:10002800AB01AC018A1147218A11A6008A11482127
:100038008A11A7008A1149218A11A8008A114A2128
:10004800A90083018A112828831203179E018312AD
:1000580003131F108316031385018601870183127A
:10006800031385018601870105151A30A5005E3046
:10007800A4008630A300A30B3F28A40B3F28A50BA0
:100088003F2800008312031305118A1128218A11C1
:100098008A110A218A118B178312031387100713F9
:1000A8000714071187178711582883120313871419
:1000B80007178530A300A30B5F288312031387104B
:1000C80007178530A300A30B672859288312031349
:1000D8002C0803196A288A11B3208A118312031382
:1000E800AC016A280B1D83280B11383081000C10D5
:1000F800FF308F0038308E0010148714A8280C1C8D
:1001080089280C1010108710A8288C1EA828AA016E
:10011800AB018C1E9E281A08F1002A08263E84008E
:100128007108831380000130AA070318AB0A003056
:10013800AB078D28AC01AC0A2A088A113D218A1127
:1001480083120313AA01AB017508FF0074088A0023
:1001580073088400720E8300FE0E7E0E0900533071
:10016800831203132606031DE62854302906031DAF
:10017800E6282708F70004300310F70CFF3E031D9C
:10018800C02877080319D028871027080319CC2816
:10019800071007158714D12887102808F70004309E
:1001A8000310F70CFF3E031DD42877080319E42831
:1001B800071327080319E02887138715071708006E
:1001C8000713080001308A11EA200800831203137C
:1001D800A200A001A1012008220784008A111B2186
:1001E8008A11003A031908002008220784008A119E
:1001F8001B218A118A1133218A11013083120313BA
:10020800A0070318A10A0030A107EF2801308312C4
:10021800031390000C10FF308F0038308E008316C7
:1002280003130C14C030F60076088B040800013064
:100238008A000408840A8207003445345234523450
:100248004F34523431340034813083160313810023
:100258003830831203138100A0308B000800F600A9
:1002680083160313981C3429760883120313990004
:100278000800F00083160313981C3E2970088312A7
:0E0288000313990008003034003400340034B1
:02400E00F2FFBF
:00000001FF
