:040000008A11112828
:10000800FE00030EF1000408F2000A08F300831250
:1000180003137F08F4008A11AE288A111328F5010A
:10002800F601F701F801B901BA0183133530FD0073
:100038000130FE00A030FF00203084008A11CC215E
:1000480083018A112728831203179E019F018312B7
:1000580003131F108316031385018601870183127A
:10006800031385018601870105150330B8008A301E
:10007800B7005630B600B60B3F28B70B3F28B80B71
:100088003F2846288312031305118A11D8218A11A3
:100098008A11B5218A118A118A218A118B17831234
:1000A8000313871007138713871177080319592833
:1000B8008A112F218A117708031D59280130F70268
:1000C80059280D30B800AF30B700C130B600B60BB4
:1000D8006B28B70B6B28B80B6B280000831203132F
:1000E80007138717871107170D30B800AF30B7000F
:1000F800C130B600B60B7E28B70B7E28B80B7E2819
:100108000000831203130713AC285930B800C83015
:10011800B7005F30B600B60B8F28B70B8F28B80B27
:100128008F28000083120313871007140711871400
:100138005930B800C830B7005F30B600B60BA228F7
:10014800B70BA228B80BA22800008312031387104C
:100158008A1111280B1DC1280B113D3081000C108C
:100168008A308F00D0308E0010140130F507031844
:10017800F60A0030F60787140D290C1CC7280C1046
:10018800101087100D298C1A0B290D291A08F00058
:100198007008F80053307806031DDE287708031D21
:1001A800DE280130B9000030BA007808F000700885
:1001B800A000022954307806031DF42803303906BC
:1001C8003A04031DF4287808F0007008A300B90168
:1001D800BA01F501F6010F30F0007008F7000229A6
:1001E8001A08F0003908203E840070088313800044
:1001F8000130B9070318BA0A0030BA0700303A02CA
:10020800053003193902031C0B29B901BA018C1AEC
:10021800CA2800307602103003197502031C2429FD
:10022800F501F6015330F0007008A000A101A20109
:100238005430F0007008A3000130F0007008F70097
:100248007408FF0073088A0072088400710E830026
:10025800FE0E7E0E09005330831203132006031D81
:10026800682954302306031D68292108B500043085
:100278000310B50CFF3E031D3C29350803194C2912
:10028800211C4929071007154F29071407114F2961
:100298000710071187102208B50004300310B50CA9
:1002A800FF3E031D52293508031964290713221C30
:1002B8006029871387156229871787110717080090
:1002C80087138711071308004F302006031D080005
:1002D8004B302106031D08004C302306031D8429DA
:1002E8005330B5003508A000A101A2015430B50073
:1002F8003508A3000130B5003508F70005110800DE
:1003080043302306031D0800051508008316031350
:1003180018150A30990018128312031398178316B8
:1003280003138617861683120313181683160313EE
:1003380098168C160B17080030340034003400343B
:100348000034003400340034003400340034003405
:1003580000340034003400340034003400340034F5
:10036800003401308312031390000C108A308F0080
:10037800D0308E00831603130C14C030831203137D
:10038800B50035088B0408007E088A007F088200C3
:10039800C8218A118000840A04087D0603190034E4
:1003A800FF0A0319FE0ACC2987308316031381003C
:1003B8003D30831203138100A030B50035088B044B
:0203C80008002B
:02400E00F2FFBF
:00000001FF
